:040000009DEF00F080
:060008004D82C3EF1BF066
:100018004D80D8CFBAF0E8CFBBF0E0CFBCF0D9CF55
:10002800BDF0DACFBEF0F3CFBFF0F4CFC0F0F6CF1B
:10003800C1F0F7CFC2F0F8CFC3F0F5CFC4F0000E8F
:100048000001C96F000ECA6F000ECB6F000ECC6F97
:10005800F2A431EF00F033EF00F085EF00F0670E07
:10006800D76E6A0ED66EF2940CEC23F089C0C9F0F4
:100078008AC0CAF08BC0CBF08CC0CCF084EC23F0E3
:1000880089C0C5F08AC0C6F08BC0C7F08CC0C8F064
:10009800E10E0001916F926BD50E936FFF0E946F76
:1000A800C5C095F0C6C096F0C7C097F0C8C098F014
:1000B800C9C099F0CAC09AF0CBC09BF0CCC09CF0E4
:1000C80038EC05F0700E0001916F010E926FA70ECB
:1000D800936FFF0E946F38EC05F0700E146E010EDE
:1000E800156EC9EC29F0210E0001B96F760EE82EC5
:1000F800FED7B92FFCD70000E10E146E156AC9ECC3
:1001080029F0C4C0F5FFC3C0F8FFC2C0F7FFC1C0E3
:10011800F6FFC0C0F4FFBFC0F3FFBEC0DAFFBDC02A
:10012800D9FFBCC0E0FFBBC0E8FFBAC0D8FF4D9004
:100138001000FBEF2AF0500E0101576F010E586FA7
:1001480020EF05F0250E6B19D8B4ADEF00F0AFEF36
:1001580000F0B9EF00F04CC1D9FF4DC1DAFF6BC117
:10016800DFFF4C4B4D2B20EF05F0000E5A6F000EB1
:10017800596F4EC1F6FF4FC1F7FFF86A0800F550F6
:100188002E0AD8A4CAEF00F0CCEF00F00BEF01F074
:100198005A8D4E4B4F2B000E666F000E656FF9EFB0
:1001A80000F065C100F166C101F1000E0101036FA5
:1001B8000A0E026FE7EC2AF000C165F101C166F191
:1001C8004EC1F6FF4FC1F7FFF86A0800F5CF50F1AE
:1001D800D00E01015025516F526BFF0E5223515121
:1001E8006527525166234E4B4F2B4EC1F6FF4FC128
:1001F800F7FFF86A0800F5507FEC2AF0D8B007EF4F
:1002080001F009EF01F0D5EF00F015EF01F0000E55
:10021800666F000E656F5A8915EF01F05A852BEF4E
:1002280001F04EC1F6FF4FC1F7FF01014E4B4F2BB6
:10023800F86A0800F5CF6BF16B51000AD8B432EFB9
:1002480005F0660AD8B412EF01F020EF05F0070EAA
:100258005A15D8B432EF01F034EF01F0CDEF04F0C5
:100268005AA939EF01F03BEF01F03FEF01F0000E22
:10027800666F060E656F57C1D9FF58C1DAFFDECF2A
:1002880067F1DECF68F1DECF69F1DECF6AF1040EE7
:100298005727000E58236ABF56EF01F054EF01F0BC
:1002A8006BEF01F067C100F168C101F169C102F1AA
:1002B8006AC103F146EC2AF000C167F101C168F197
:1002C80002C169F103C16AF1030E01015913000E5D
:1002D800606F000E5F6F67C100F168C101F169C10D
:1002E80002F16AC103F1000E046F000E056F000EE3
:1002F800066F000E076F3EEC26F00101D8B087EFBD
:1003080001F089EF01F01DEF02F069356A35820FBF
:100318005F6F606BFF0E60235F07D8A060075FC147
:1003280000F160C101F1000E036F030E026FE7ECEC
:100338002AF000C15FF101C160F15FC106F160C13F
:1003480007F1000E0101096F0A0E086F6DEC24F029
:1003580006C15FF107C160F1010160BFB8EF01F0AC
:10036800B6EF01F0BBEF01F05F07D8A060075F515F
:1003780000088EEC0EF027C161F128C162F129C195
:1003880063F12AC164F161C10EF162C10FF163C169
:1003980010F164C111F167C112F168C113F169C1AB
:1003A80014F16AC115F1F8EC12F00EC161F10FC138
:1003B80062F110C163F111C164F161C100F162C160
:1003C80001F163C102F164C103F1000E0101046F80
:1003D800000E056F800E066F3F0E076F07EC22F0C8
:1003E8000101D8B0FAEF01F0FCEF01F001EF02F0E3
:1003F8005F07D8A060071DEF02F061C100F162C17C
:1004080001F163C102F164C103F1000E046F000E33
:10041800056F200E066F410E076F07EC22F00101F1
:10042800D8A019EF02F01BEF02F01DEF02F05F4BAE
:10043800602B66BF2BEF02F0665107E10D0E655D7C
:10044800D8B029EF02F02BEF02F048EF02F067C1B5
:1004580034F168C135F169C136F16AC137F16551C6
:10046800F1EC18F027C138F128C139F129C13AF166
:100478002AC13BF1CCEC09F034C167F135C168F110
:1004880036C169F137C16AF1010160BF57EF02F067
:10049800605107E10A0E5F5DD8B055EF02F057EFE3
:1004A80002F095EF02F067C100F168C101F169C17E
:1004B80002F16AC103F1000E046F000E056F000E11
:1004C800066F000E076F3EEC26F00101D8B06FEF03
:1004D80002F071EF02F0E9EF02F067C127F168C19D
:1004E80028F169C129F16AC12AF1FFEC20F0010164
:1004F8002751281129112A11D8A485EF02F087EF76
:1005080002F0E9EF02F060BF93EF02F0605109E1F9
:10051800020E5F5DD8A093EF02F095EF02F0E9EFCD
:1005280002F061C100F162C101F163C102F164C16D
:1005380003F15F0E046F700E056F890E066F400E93
:10054800076F07EC22F00101D8B0ADEF02F0AFEF72
:1005580002F0B5EF02F0F70E5F27FF0E6023B9EF48
:1005680002F0F80E5F27FF0E60235F518EEC0EF04D
:1005780027C161F128C162F129C163F12AC164F17F
:1005880067C100F168C101F169C102F16AC103F1F3
:1005980061C104F162C105F163C106F164C107F1EB
:1005A800B2EC1FF000C15BF101C15CF102C15DF169
:1005B80003C15EF1000E0101676F000E686F000E47
:1005C800696F000E6A6F25EF03F067C127F168C1F4
:1005D80028F169C129F16AC12AF1FFEC20F027C18D
:1005E8005BF128C15CF129C15DF12AC15EF167C1E7
:1005F80044F168C145F169C146F16AC147F15BC17F
:1006080000F15CC101F15DC102F15EC103F1000EB0
:10061800A5EC1CF000C148F101C149F102C14AF141
:1006280003C14BF13EEC29F044C167F145C168F1C3
:1006380046C169F147C16AF1000E0101606F000E01
:100648005F6F010E6B6F6B51040D690EF324F66E2C
:10065800FF0EF420F76EF86A000EF8220900F55034
:100668005B5D0900F5505C590900F5505D590900BA
:10067800F5505E59D8B043EF03F045EF03F047EF6C
:1006880003F051EF03F06B2B0A0E6B19D8A44FEF50
:1006980003F051EF03F027EF03F0030E5915506FE5
:1006A800000E5A15516F50515111D8B45EEF03F036
:1006B80060EF03F0B8EF03F04CC1D9FF4DC1DAFF8A
:1006C8002D0EDF6E4C4B4D2BB8EF03F05BC100F1E4
:1006D8005CC101F15DC102F15EC103F16B51040D12
:1006E800690EF324F66EFF0EF420F76EF86A000E1A
:1006F800F8220900F5CF04F10900F5CF05F109004A
:10070800F5CF06F10A00F5CF07F1E9EC26F000C1B4
:1007180061F101C162F102C163F103C164F161C118
:1007280000F162C101F163C102F164C103F10A0E73
:100738000101046F000E056F000E066F000E076FB3
:10074800DBEC27F000C161F101C162F102C163F184
:1007580003C164F101016151300F4CC1D9FF4DC192
:10076800DAFFDF6E66EF03F06B076B29D8A4BFEFE3
:1007780003F0C1EF03F06AEF03F0CEEF03F04CC1D2
:10078800D9FF4DC1DAFF300EDF6E4C4B4D2B5F07A2
:10079800D8A0600760BFDBEF03F0605106E15F059A
:1007A800D8B0D9EF03F0DBEF03F0C3EF03F066BF77
:1007B800E7EF03F0665109E1090E655DD8A0E7EFA0
:1007C80003F0E9EF03F0EDEF03F0080E6B6FEFEFC6
:1007D80003F065C16BF16B51655F000E665B6B5191
:1007E800D8B4F9EF03F0FBEF03F003EF04F04CC1CA
:1007F800D9FF4DC1DAFF2E0EDF6E4C4B4D2B6B51DE
:100808008EEC0EF027C153F128C154F129C155F1DE
:100818002AC156F167C112F168C113F169C114F117
:100828006AC115F153C10EF154C10FF155C110F150
:1008380056C111F1F8EC12F00EC127F10FC128F1E1
:1008480010C129F111C12AF1FFEC20F027C15BF199
:1008580028C15CF129C15DF12AC15EF1ABEF04F05A
:100868005BC100F15CC101F15DC102F15EC103F140
:100878006B51040D690EF324F66EFF0EF420F76E2B
:10088800F86A000EF8220900F5CF04F10900F5CF47
:1008980005F10900F5CF06F10A00F5CF07F1E9ECFB
:1008A80026F000C161F101C162F102C163F103C127
:1008B80064F161C100F162C101F163C102F164C177
:1008C80003F10A0E0101046F000E056F000E066F9A
:1008D800000E076FDBEC27F000C161F101C162F186
:1008E80002C163F103C164F101016151300F4CC1D0
:1008F800D9FF4DC1DAFFDF6E4C4B4D2B5BC100F1C8
:100908005CC101F15DC102F15EC103F16B51040DDF
:10091800690EF324F66EFF0EF420F76EF86A000EE7
:10092800F8220900F5CF04F10900F5CF05F1090017
:10093800F5CF06F10A00F5CF07F1DBEC27F000C18F
:100948005BF101C15CF102C15DF103C15EF101011E
:100958006B076B29D8A4B3EF04F0B5EF04F034EFBC
:1009680004F0C2EF04F04CC1D9FF4DC1DAFF300EDC
:10097800DF6E4C4B4D2B6507D8A066076551661195
:10098800D8A4C9EF04F0CBEF04F0B7EF04F020EFE0
:1009980005F065516611D8A4D4EF04F0D6EF04F041
:1009A800E3EF04F05B515C115D115E11D8A4DFEF39
:1009B80004F0E1EF04F0E3EF04F0654B662B6B51B4
:1009C800506F516B6551505D5151800A526F66519D
:1009D800800A5259D8B0F3EF04F0F5EF04F0F7EFBE
:1009E80004F009EF05F06B51506F516B5051655D84
:1009F8006651800A526F5151800A5259D8B007EF98
:100A080005F009EF05F009EF05F0030E5915506FD1
:100A1800000E5A15516F50515111D8B416EF05F008
:100A280018EF05F020EF05F04CC1D9FF4DC1DAFFF2
:100A38002D0EDF6EB5EF00F04EC1F6FF4FC1F7FF88
:100A48004E4B4F2BF86A0800F5CF6BF16B51D8A4C9
:100A580030EF05F032EF05F0A6EF00F04CC1D9FFFA
:100A68004DC1DAFFDF6A1200950E0001A46FA56B75
:100A7800B4EF09F0250EB819D8B445EF05F047EFE3
:100A880005F051EF05F091C0D9FF92C0DAFFB8C068
:100A9800DFFF914B922BB4EF09F0000EA76F000E09
:100AA800A66F93C0F6FF94C0F7FFF86A0800F550E8
:100AB8002E0AD8A462EF05F064EF05F0A2EF05F066
:100AC800A78D934B942B000EB36F000EB26F90EF6F
:100AD80005F0B2C013F0B3C014F0000E166E0A0E83
:100AE800156E0EEC2BF013C0B2F014C0B3F093C027
:100AF800F6FF94C0F7FFF86A0800F5CF9DF0D00E16
:100B080000019D259E6F9F6BFF0E9F239E51B2276C
:100B18009F51B323934B942B93C0F6FF94C0F7FFD8
:100B2800F86A0800F550CEEC2AF0D8B09EEF05F030
:100B3800A0EF05F06DEF05F0ACEF05F0000EB36F18
:100B4800000EB26FA789ACEF05F0A785C2EF05F0DC
:100B580093C0F6FF94C0F7FF0001934B942BF86AFB
:100B68000800F5CFB8F0B851000AD8B4C6EF09F0BC
:100B7800660AD8B4A9EF05F0B4EF09F0070EA71577
:100B8800D8B4C9EF05F0CBEF05F061EF09F0A7A9DC
:100B9800D0EF05F0D2EF05F0D6EF05F0000EB36FF9
:100BA800060EB26FA4C0D9FFA5C0DAFFDECFB4F03D
:100BB800DECFB5F0DECFB6F0DECFB7F0040EA42757
:100BC800000EA523B7BFEDEF05F0EBEF05F002EF40
:100BD80006F0B4C013F0B5C014F0B6C015F0B7C035
:100BE80016F063EC2AF013C0B4F014C0B5F015C0C9
:100BF800B6F016C0B7F0030E0001A613000EAD6FD5
:100C0800000EAC6FB4C013F0B5C014F0B6C015F048
:100C1800B7C016F0000E176E000E186E000E196E93
:100C2800000E1A6E94EC26F0D8B01DEF06F01FEFF8
:100C380006F0B2EF06F00001B635B735820FAC6F9B
:100C4800AD6BFF0EAD23AC07D8A0AD07ACC013F059
:100C5800ADC014F0000E166E030E156E0EEC2BF0E0
:100C680013C0ACF014C0ADF0ACC019F0ADC01AF0B0
:100C7800000E1C6E0A0E1B6ED0EC24F019C0ACF0EE
:100C88001AC0ADF00001ADBF4EEF06F04CEF06F014
:100C980051EF06F0AC07D8A0AD07AC510008C6EC80
:100CA80010F046C0AEF047C0AFF048C0B0F049C041
:100CB800B1F0AEC03AF0AFC03BF0B0C03CF0B1C04C
:100CC8003DF0B4C03EF0B5C03FF0B6C040F0B7C08C
:100CD80041F00EEC15F03AC0AEF03BC0AFF03CC0AE
:100CE800B0F03DC0B1F0AEC013F0AFC014F0B0C06A
:100CF80015F0B1C016F0000E176E000E186E800EBB
:100D0800196E3F0E1A6E8AEC22F0D8B08EEF06F0FC
:100D180090EF06F096EF06F00001AC07D8A0AD07FB
:100D2800B2EF06F0AEC013F0AFC014F0B0C015F0CB
:100D3800B1C016F0000E176E000E186E200E196E58
:100D4800410E1A6E8AEC22F0D8A0ADEF06F0AFEF94
:100D580006F0B2EF06F00001AC4BAD2B0001B3BFBB
:100D6800C1EF06F0B35107E10D0EB25DD8B0BFEF89
:100D780006F0C1EF06F0DEEF06F0B4C079F0B5C0BA
:100D88007AF0B6C07BF0B7C07CF0B2515EEC1AF0D6
:100D980046C07DF047C07EF048C07FF049C080F073
:100DA8002DEC0CF079C0B4F07AC0B5F07BC0B6F089
:100DB8007CC0B7F00001ADBFEDEF06F0AD5107E123
:100DC8000A0EAC5DD8B0EBEF06F0EDEF06F02AEFB7
:100DD80007F0B4C013F0B5C014F0B6C015F0B7C032
:100DE80016F0000E176E000E186E000E196E000E2B
:100DF8001A6E94EC26F0D8B004EF07F006EF07F06F
:100E08007FEF07F0B4C075F0B5C076F0B6C077F0E4
:100E1800B7C078F083EC21F0000175517611771195
:100E28007811D8A41AEF07F01CEF07F07FEF07F04E
:100E3800ADBF28EF07F0AD5109E1020EAC5DD8A0B7
:100E480028EF07F02AEF07F07FEF07F0AEC013F0A6
:100E5800AFC014F0B0C015F0B1C016F05F0E176E39
:100E6800700E186E890E196E400E1A6E8AEC22F0FA
:100E7800D8B041EF07F043EF07F04AEF07F0000161
:100E8800F70EAC27FF0EAD234FEF07F00001F80E69
:100E9800AC27FF0EAD23AC51C6EC10F046C0AEF047
:100EA80047C0AFF048C0B0F049C0B1F0B4C013F0CB
:100EB800B5C014F0B6C015F0B7C016F0AEC017F044
:100EC800AFC018F0B0C019F0B1C01AF059EC20F05A
:100ED80013C0A8F014C0A9F015C0AAF016C0ABF052
:100EE800000E0001B46F000EB56F000EB66F000E55
:100EF800B76FBBEF07F0B4C075F0B5C076F0B6C0F9
:100F080077F0B7C078F083EC21F075C0A8F076C010
:100F1800A9F077C0AAF078C0ABF0B4C089F0B5C02A
:100F28008AF0B6C08BF0B7C08CF0A8C013F0A9C087
:100F380014F0AAC015F0ABC016F0000E81EC1DF03D
:100F480013C08DF014C08EF015C08FF016C090F04D
:100F580062EC29F089C0B4F08AC0B5F08BC0B6F055
:100F68008CC0B7F0000E0001AD6F000EAC6F010E23
:100F7800B86FB851040D690EF324F66EFF0EF42015
:100F8800F76EF86A000EF8220900F550A85D09000E
:100F9800F550A9590900F550AA590900F550AB595F
:100FA800D8B0D9EF07F0DBEF07F0DDEF07F0E7EF98
:100FB80007F0B82B0A0EB819D8A4E5EF07F0E7EF49
:100FC80007F0BDEF07F0030EA6159D6F000EA715DD
:100FD8009E6F9D519E11D8B4F4EF07F0F6EF07F01D
:100FE8004DEF08F091C0D9FF92C0DAFF2D0EDF6EE9
:100FF800914B922B4DEF08F0A8C013F0A9C014F044
:10100800AAC015F0ABC016F0B851040D690EF32450
:10101800F66EFF0EF420F76EF86A000EF82209004B
:10102800F5CF17F00900F5CF18F00900F5CF19F042
:101038000A00F5CF1AF03CEC27F013C0AEF014C04C
:10104800AFF015C0B0F016C0B1F0AEC013F0AFC02D
:1010580014F0B0C015F0B1C016F00A0E176E000EED
:10106800186E000E196E000E1A6E20EC28F013C0D0
:10107800AEF014C0AFF015C0B0F016C0B1F000016A
:10108800AE51300F91C0D9FF92C0DAFFDF6EFCEF8E
:1010980007F0B807B829D8A454EF08F056EF08F0BD
:1010A80000EF08F063EF08F091C0D9FF92C0DAFFB3
:1010B800300EDF6E914B922BAC07D8A0AD07ADBFB9
:1010C80070EF08F0AD5106E1AC05D8B06EEF08F04E
:1010D80070EF08F058EF08F0B3BF7CEF08F0B35199
:1010E80009E1090EB25DD8A07CEF08F07EEF08F0A8
:1010F80082EF08F0080EB86F84EF08F0B2C0B8F0BD
:10110800B851B25F000EB35BB851D8B48EEF08F097
:1011180090EF08F098EF08F091C0D9FF92C0DAFF7D
:101128002E0EDF6E914B922BB851C6EC10F046C0D4
:10113800A0F047C0A1F048C0A2F049C0A3F0B4C0D5
:101148003EF0B5C03FF0B6C040F0B7C041F0A0C017
:101158003AF0A1C03BF0A2C03CF0A3C03DF00EECB9
:1011680015F03AC075F03BC076F03CC077F03DC052
:1011780078F083EC21F075C0A8F076C0A9F077C0AC
:10118800AAF078C0ABF03FEF09F0A8C013F0A9C0EF
:1011980014F0AAC015F0ABC016F0B851040D690ED2
:1011A800F324F66EFF0EF420F76EF86A000EF822AC
:1011B8000900F5CF17F00900F5CF18F00900F5CFB1
:1011C80019F00A00F5CF1AF03CEC27F013C0AEF086
:1011D80014C0AFF015C0B0F016C0B1F0AEC013F037
:1011E800AFC014F0B0C015F0B1C016F00A0E176EFB
:1011F800000E186E000E196E000E1A6E20EC28F004
:1012080013C0AEF014C0AFF015C0B0F016C0B1F006
:101218000001AE51300F91C0D9FF92C0DAFFDF6EE6
:10122800914B922BA8C013F0A9C014F0AAC015F0D6
:10123800ABC016F0B851040D690EF324F66EFF0E1C
:10124800F420F76EF86A000EF8220900F5CF17F0BF
:101258000900F5CF18F00900F5CF19F00A00F5CF0D
:101268001AF020EC28F013C0A8F014C0A9F015C09B
:10127800AAF016C0ABF00001B807B829D8A447EF08
:1012880009F049EF09F0C9EF08F056EF09F091C0ED
:10129800D9FF92C0DAFF300EDF6E914B922BB20766
:1012A800D8A0B307B251B311D8A45DEF09F05FEF2E
:1012B80009F04BEF09F0B4EF09F0B251B311D8A41B
:1012C80068EF09F06AEF09F077EF09F0A851A91162
:1012D800AA11AB11D8A473EF09F075EF09F077EFF5
:1012E80009F0B24BB32BB8519D6F9E6BB2519D5D07
:1012F8009E51800A9F6FB351800A9F59D8B087EFDB
:1013080009F089EF09F08BEF09F09DEF09F0B8516A
:101318009D6F9E6B9D51B25DB351800A9F6F9E5128
:10132800800A9F59D8B09BEF09F09DEF09F09DEF17
:1013380009F0030EA6159D6F000EA7159E6F9D510F
:101348009E11D8B4AAEF09F0ACEF09F0B4EF09F098
:1013580091C0D9FF92C0DAFF2D0EDF6E4DEF05F078
:1013680093C0F6FF94C0F7FF934B942BF86A0800DC
:10137800F5CFB8F0B851D8A4C4EF09F0C6EF09F01A
:101388003EEF05F091C0D9FF92C0DAFFDF6A120084
:1013980001013751800B406F37513725426F36AF07
:1013A800D8EF09F0DAEF09F0DBEF09F0428142519A
:1013B800D8B4E1EF09F0E3EF09F0F8EF09F04229BA
:1013C800D8A4E9EF09F0EBEF09F0F3EF09F0000E0C
:1013D800346F000E356F000E366F000E376F368F84
:1013E800000E376F00EF0AF0000E346F000E356FF5
:1013F800000E366F000E376F3B51800B416F405126
:101408004119D8B40AEF0AF00CEF0AF00DEF0AF010
:10141800408D3B513B25416F3AAF15EF0AF017EF6E
:101428000AF018EF0AF041814151D8B41EEF0AF0D2
:1014380020EF0AF035EF0AF04129D8A426EF0AF088
:1014480028EF0AF030EF0AF0000E386F000E396FFF
:10145800000E3A6F000E3B6F3A8F000E3B6F3DEF68
:101468000AF0000E386F000E396F000E3A6F000E4A
:101478003B6F4251415DD8B044EF0AF046EF0AF0A5
:101488006DEF0AF040AD4BEF0AF04DEF0AF04FEF69
:101498000AF0800E401B42C143F141C142F143C1F1
:1014A80041F134C143F138C134F143C138F135C198
:1014B80043F139C135F143C139F136C143F13AC17C
:1014C80036F143C13AF137C143F13BC137F143C16A
:1014D8003BF1000E436F425141C13CF13D6B3C5F13
:1014E800000E3D5B3DBF82EF0AF03D5109E11A0E47
:1014F8003C5DD8A082EF0AF084EF0AF0BBEF0AF057
:101508003451351136113711D8A48DEF0AF090EF08
:101518000AF0010E91EF0AF0000E436F000E346FCF
:10152800000E356F000E366F000E376F41C142F165
:10153800C4EF0AF043A1A3EF0AF0A5EF0AF0ABEF5E
:101548000AF0D89043310109436FADEF0AF0D89003
:10155800433334A1B2EF0AF0B4EF0AF0B5EF0AF062
:10156800438F37353733363335333433422B415194
:10157800425DD8A0C2EF0AF0C4EF0AF09EEF0AF06D
:1015880040BDC9EF0AF0CBEF0AF00BEF0BF0425168
:10159800D8A4D1EF0AF0D3EF0AF0DDEF0AF0000E7D
:1015A800346F000E356F000E366F000E376F2CEF5C
:1015B8000CF038513427395135233A5136233B51F1
:1015C800372337A1EAEF0AF0ECEF0AF098EF0BF0B7
:1015D80043A1F1EF0AF0F3EF0AF0F9EF0AF0D8901F
:1015E80043310109436FFBEF0AF0D890433334A12C
:1015F80000EF0BF002EF0BF003EF0BF0438F3735E2
:101608003733363335333433422B98EF0BF03851B8
:10161800345D395135593A5136593751800A3C6F42
:101628003B51800A3C59D8B01CEF0BF01EEF0BF071
:1016380049EF0BF03451385D3C6F355139593D6FE6
:1016480036513A593E6F37513B593F6FFF0E3C2593
:10165800346FFF0E3D21356FFF0E3E21366FFF0EB2
:101668003F21376F800E401B436D4351D8A43FEF95
:101678000BF041EF0BF051EF0BF0010E3427000E89
:1016880035233623372351EF0BF03851345F395166
:10169800355B3A51365B3B51375B34513511361166
:1016A8003711D8A45AEF0BF05CEF0BF091EF0BF069
:1016B8004351D8A462EF0BF064EF0BF091EF0BF0FD
:1016C800000E346F000E356F000E366F000E376F48
:1016D8002CEF0CF0D890343735373637373743AFDF
:1016E80078EF0BF07AEF0BF07BEF0BF0348143A12E
:1016F80080EF0BF082EF0BF086EF0BF0D8804337CA
:1017080088EF0BF0D89043374251D8B48EEF0BF0E6
:1017180090EF0BF091EF0BF0420736AF96EF0BF01E
:1017280098EF0BF06EEF0BF0000E416F43AF9FEF99
:101738000BF0A1EF0BF0B9EF0BF043C13CF17F0EBA
:101748003C17D8B4AAEF0BF0ACEF0BF0B0EF0BF0EE
:10175800010E416FB9EF0BF034A1B5EF0BF0B7EF05
:101768000BF0B9EF0BF0ACEF0BF04151D8B4BFEF71
:101778000BF0C1EF0BF0ECEF0BF0010E3427000E6D
:1017880035233623372337A1CCEF0BF0CEEF0BF000
:10179800ECEF0BF034C13CF135C13DF136C13EF1FF
:1017A80037C13FF13F353F333E333D333C333CC1D6
:1017B80034F13DC135F13EC136F13FC137F142291F
:1017C800D8B4E9EF0BF0EBEF0BF0ECEF0BF0422B9A
:1017D8004229D8B4F2EF0BF0F4EF0BF0FCEF0BF06A
:1017E8004251D8A4FAEF0BF0FCEF0BF00EEF0CF01F
:1017F800000E346F000E356F000E366F000E376F17
:101808004251D8A40AEF0CF00CEF0CF00EEF0CF0DC
:10181800000E406F42A113EF0CF015EF0CF018EF1B
:101828000CF0368F19EF0CF0369FD8904231376F95
:1018380040AF21EF0CF023EF0CF024EF0CF0378FC2
:1018480034C134F135C135F136C136F137C137F11C
:10185800120000017C51800B856F7C517C25876FBD
:101868007BAF39EF0CF03BEF0CF03CEF0CF08781CD
:101878008751D8B442EF0CF044EF0CF059EF0CF05C
:101888008729D8A44AEF0CF04CEF0CF054EF0CF079
:10189800000E796F000E7A6F000E7B6F000E7C6F62
:1018A8007B8F000E7C6F61EF0CF0000E796F000EDD
:1018B8007A6F000E7B6F000E7C6F8051800B866FF5
:1018C80085518619D8B46BEF0CF06DEF0CF06EEF04
:1018D8000CF0858D80518025866F7FAF76EF0CF0F8
:1018E80078EF0CF079EF0CF086818651D8B47FEF51
:1018F8000CF081EF0CF096EF0CF08629D8A487EF56
:101908000CF089EF0CF091EF0CF0000E7D6F000EDB
:101918007E6F000E7F6F000E806F7F8F000E806FCE
:101928009EEF0CF0000E7D6F000E7E6F000E7F6F35
:10193800000E806F8751865DD8B0A5EF0CF0A7EF39
:101948000CF0CEEF0CF085ADACEF0CF0AEEF0CF078
:10195800B0EF0CF0800E851B87C088F086C087F03A
:1019680088C086F079C088F07DC079F088C07DF0A5
:101978007AC088F07EC07AF088C07EF07BC088F09C
:101988007FC07BF088C07FF07CC088F080C07CF08E
:1019980088C080F0000E886F875186C081F0826B06
:1019A800815F000E825B82BFE3EF0CF0825109E198
:1019B8001A0E815DD8A0E3EF0CF0E5EF0CF01CEFF8
:1019C8000DF079517A117B117C11D8A4EEEF0CF04F
:1019D800F1EF0CF0010EF2EF0CF0000E886F000E24
:1019E800796F000E7A6F000E7B6F000E7C6F86C0D9
:1019F80087F025EF0DF088A104EF0DF006EF0DF04C
:101A08000CEF0DF0D89088310109886F0EEF0DF0BA
:101A1800D890883379A113EF0DF015EF0DF016EF7C
:101A28000DF0888F7C357C337B337A337933872B81
:101A38008651875DD8A023EF0DF025EF0DF0FFEF5D
:101A48000CF085BD2AEF0DF02CEF0DF06CEF0DF0CA
:101A58008751D8A432EF0DF034EF0DF03EEF0DF0C2
:101A6800000E796F000E7A6F000E7B6F000E7C6F90
:101A78008DEF0EF07D5179277E517A237F517B239C
:101A880080517C237CA14BEF0DF04DEF0DF0F9EF69
:101A98000DF088A152EF0DF054EF0DF05AEF0DF054
:101AA800D89088310109886F5CEF0DF0D8908833A1
:101AB80079A161EF0DF063EF0DF064EF0DF0888F01
:101AC8007C357C337B337A337933872BF9EF0DF010
:101AD8007D51795D7E517A597F517B597C51800ABD
:101AE800816F8051800A8159D8B07DEF0DF07FEF6A
:101AF8000DF0AAEF0DF079517D5D816F7A517E5915
:101B0800826F7B517F59836F7C518059846FFF0EA0
:101B18008125796FFF0E82217A6FFF0E83217B6FFB
:101B2800FF0E84217C6F800E851B886D8851D8A498
:101B3800A0EF0DF0A2EF0DF0B2EF0DF0010E792736
:101B4800000E7A237B237C23B2EF0DF07D51795F61
:101B58007E517A5B7F517B5B80517C5B79517A1136
:101B68007B117C11D8A4BBEF0DF0BDEF0DF0F2EFA7
:101B78000DF08851D8A4C3EF0DF0C5EF0DF0F2EFCA
:101B88000DF0000E796F000E7A6F000E7B6F000E5D
:101B98007C6F8DEF0EF0D89079377A377B377C37AA
:101BA80088AFD9EF0DF0DBEF0DF0DCEF0DF07981A8
:101BB80088A1E1EF0DF0E3EF0DF0E7EF0DF0D8802D
:101BC8008837E9EF0DF0D89088378751D8B4EFEF10
:101BD8000DF0F1EF0DF0F2EF0DF087077BAFF7EFA7
:101BE8000DF0F9EF0DF0CFEF0DF0000E866F88AF16
:101BF80000EF0EF002EF0EF01AEF0EF088C081F041
:101C08007F0E8117D8B40BEF0EF00DEF0EF011EF29
:101C18000EF0010E866F1AEF0EF079A116EF0EF096
:101C280018EF0EF01AEF0EF00DEF0EF08651D8B443
:101C380020EF0EF022EF0EF04DEF0EF0010E792797
:101C4800000E7A237B237C237CA12DEF0EF02FEF4F
:101C58000EF04DEF0EF079C081F07AC082F07BC0B3
:101C680083F07CC084F084358433833382338133BA
:101C780081C079F082C07AF083C07BF084C07CF0A8
:101C88008729D8B44AEF0EF04CEF0EF04DEF0EF066
:101C9800872B8729D8B453EF0EF055EF0EF05DEF80
:101CA8000EF08751D8A45BEF0EF05DEF0EF06FEFEA
:101CB8000EF0000E796F000E7A6F000E7B6F000E2B
:101CC8007C6F8751D8A46BEF0EF06DEF0EF06FEFBD
:101CD8000EF0000E856F87A174EF0EF076EF0EF010
:101CE80079EF0EF07B8F7AEF0EF07B9FD8908731DB
:101CF8007C6F85AF82EF0EF084EF0EF085EF0EF06B
:101D08007C8F79C079F07AC07AF07BC07BF07CC098
:101D18007CF0120001012F6F01012FBF98EF0EF028
:101D280096EF0EF0B0EF0FF02F6D2F51800A120FC3
:101D3800D8A0A1EF0EF0A3EF0EF039EF0FF0000ED0
:101D4800096F0A0E086F000E036F640E026F2F51A1
:101D5800006F016B00BF01078DEC25F000C106F193
:101D680001C107F16DEC24F0090E010106270651A7
:101D7800040D350EF324F66EFF0EF420F76EF86AA4
:101D8800000EF8220900F5CF12F10900F5CF13F182
:101D98000900F5CF14F10A00F5CF15F1000E096F0F
:101DA800640E086F2F51066F076B06BF07076DECAF
:101DB80024F0120E010106270651040D350EF324F6
:101DC800F66EFF0EF420F76EF86A000EF82209008E
:101DD800F5CF0EF10900F5CF0FF10900F5CF10F19D
:101DE8000A00F5CF11F1F8EC12F00EC12BF10FC17A
:101DF8002CF110C12DF111C12EF12BC10EF12CC106
:101E08000FF12DC110F12EC111F1000E0101036F68
:101E18000A0E026F2F51006F016B00BF01078DEC96
:101E280025F001010051040D350EF324F66EFF0E66
:101E3800F420F76EF86A000EF8220900F5CF12F1C7
:101E48000900F5CF13F10900F5CF14F10A00F5CF19
:101E580015F1F8EC12F00EC127F10FC128F110C1ED
:101E680029F111C12AF1C5EF10F02F51800A750F21
:101E7800D8A041EF0FF043EF0FF097EF0FF0000EEF
:101E8800096F0A0E086F2F51066F076B06BF070709
:101E98006DEC24F0090E010106270651040D350EDC
:101EA800F324F66EFF0EF420F76EF86A000EF8229F
:101EB8000900F5CF0EF10900F5CF0FF10900F5CFB4
:101EC80010F10A00F5CF11F1000E036F0A0E026F30
:101ED8002F51006F016B00BF01078DEC25F0010148
:101EE8000051040D350EF324F66EFF0EF420F76E44
:101EF800F86A000EF8220900F5CF12F10900F5CFB3
:101F080013F10900F5CF14F10A00F5CF15F1F8EC3B
:101F180012F00EC127F10FC128F110C129F111C12A
:101F28002AF1C5EF10F02F51040D350EF324F66E8B
:101F3800FF0EF420F76EF86A000EF8220900F5CFBC
:101F480027F10900F5CF28F10900F5CF29F10A009A
:101F5800F5CF2AF1C5EF10F02F51800A120FD8A043
:101F6800B8EF0FF0BAEF0FF050EF10F0000E096F56
:101F78000A0E086F000E036F640E026F2F51006F78
:101F8800016B00BF01078DEC25F000C106F101C10E
:101F980007F16DEC24F0090E010106270651040D26
:101FA800010EF324F66EFF0EF420F76EF86A000EA9
:101FB800F8220900F5CF12F10900F5CF13F1090055
:101FC800F5CF14F10A00F5CF15F1000E096F640E74
:101FD800086F2F51066F076B06BF07076DEC24F0DB
:101FE800120E010106270651040D010EF324F66EA8
:101FF800FF0EF420F76EF86A000EF8220900F5CFFC
:102008000EF10900F5CF0FF10900F5CF10F10A0024
:10201800F5CF11F1F8EC12F00EC12BF10FC12CF134
:1020280010C12DF111C12EF12BC10EF12CC10FF1F0
:102038002DC110F12EC111F1000E0101036F0A0E1E
:10204800026F2F51006F016B00BF01078DEC25F067
:1020580001010051040D010EF324F66EFF0EF42069
:10206800F76EF86A000EF8220900F5CF12F10900A0
:10207800F5CF13F10900F5CF14F10A00F5CF15F1EA
:10208800F8EC12F00EC127F10FC128F110C129F1A7
:1020980011C12AF1C5EF10F02F51800A750FD8A091
:1020A80058EF10F05AEF10F0AEEF10F0000E096F75
:1020B8000A0E086F2F51066F076B06BF07076DECF6
:1020C80024F0090E010106270651040D010EF32420
:1020D800F66EFF0EF420F76EF86A000EF82209007B
:1020E800F5CF0EF10900F5CF0FF10900F5CF10F18A
:1020F8000A00F5CF11F1000E036F0A0E026F2F517F
:10210800006F016B00BF01078DEC25F00101005144
:10211800040D010EF324F66EFF0EF420F76EF86A34
:10212800000EF8220900F5CF12F10900F5CF13F1DE
:102138000900F5CF14F10A00F5CF15F1F8EC12F00B
:102148000EC127F10FC128F110C129F111C12AF1DF
:10215800C5EF10F02F51040D010EF324F66EFF0E9B
:10216800F420F76EF86A000EF8220900F5CF27F17F
:102178000900F5CF28F10900F5CF29F10A00F5CFBC
:102188002AF112000001746F000174BFD0EF10F043
:10219800CEEF10F0E5EF11F0746D7451800A120F54
:1021A800D8A0D9EF10F0DBEF10F06FEF11F0000EB0
:1021B8001C6E0A0E1B6E000E166E640E156E7451A0
:1021C800136E146A13BE1406E6EC25F013C019F05A
:1021D80014C01AF0D0EC24F0090E19261950040D79
:1021E800350EF324F66EFF0EF420F76EF86A000E33
:1021F800F8220900F5CF3EF00900F5CF3FF00900BD
:10220800F5CF40F00A00F5CF41F0000E1C6E640EC9
:102218001B6E00017451196E1A6A19BE1A06D0ECA9
:1022280024F0120E19261950040D350EF324F66EFB
:10223800FF0EF420F76EF86A000EF8220900F5CFB9
:102248003AF00900F5CF3BF00900F5CF3CF00A0061
:10225800F5CF3DF00EEC15F03AC070F03BC071F0D0
:102268003CC072F03DC073F070C03AF071C03BF0F2
:1022780072C03CF073C03DF0000E166E0A0E156E6B
:1022880000017451136E146A13BE1406E6EC25F0AF
:102298001350040D350EF324F66EFF0EF420F76E7E
:1022A800F86A000EF8220900F5CF3EF00900F5CFD4
:1022B8003FF00900F5CF40F00A00F5CF41F00EECF1
:1022C80015F03AC046F03BC047F03CC048F03DC06E
:1022D80049F0F7EF12F07451800A750FD8A077EF24
:1022E80011F079EF11F0CCEF11F0000E1C6E0A0E10
:1022F8001B6E7451196E1A6A19BE1A06D0EC24F0B6
:10230800090E19261950040D350EF324F66EFF0E2A
:10231800F420F76EF86A000EF8220900F5CF3AF0BB
:102328000900F5CF3BF00900F5CF3CF00A00F5CFE6
:102338003DF0000E166E0A0E156E00017451136EF4
:10234800146A13BE1406E6EC25F01350040D350E7E
:10235800F324F66EFF0EF420F76EF86A000EF822EA
:102368000900F5CF3EF00900F5CF3FF00900F5CFA1
:1023780040F00A00F5CF41F00EEC15F03AC046F0F7
:102388003BC047F03CC048F03DC049F0F7EF12F0C1
:102398007451040D350EF324F66EFF0EF420F76E1B
:1023A800F86A000EF8220900F5CF46F00900F5CFCB
:1023B80047F00900F5CF48F00A00F5CF49F0F7EFEC
:1023C80012F07451800A120FD8A0EDEF11F0EFEF60
:1023D80011F083EF12F0000E1C6E0A0E1B6E000E39
:1023E800166E640E156E7451136E146A13BE1406BD
:1023F800E6EC25F013C019F014C01AF0D0EC24F064
:10240800090E19261950040D010EF324F66EFF0E5D
:10241800F420F76EF86A000EF8220900F5CF3EF0B6
:102428000900F5CF3FF00900F5CF40F00A00F5CFDD
:1024380041F0000E1C6E640E1B6E00017451196E83
:102448001A6A19BE1A06D0EC24F0120E1926195071
:10245800040D010EF324F66EFF0EF420F76EF86AF1
:10246800000EF8220900F5CF3AF00900F5CF3BF04D
:102478000900F5CF3CF00A00F5CF3DF00EEC15F061
:102488003AC070F03BC071F03CC072F03DC073F0D0
:1024980070C03AF071C03BF072C03CF073C03DF0C0
:1024A800000E166E0A0E156E00017451136E146A32
:1024B80013BE1406E6EC25F01350040D010EF324A8
:1024C800F66EFF0EF420F76EF86A000EF822090087
:1024D800F5CF3EF00900F5CF3FF00900F5CF40F009
:1024E8000A00F5CF41F00EEC15F03AC046F03BC0BB
:1024F80047F03CC048F03DC049F0F7EF12F0745186
:10250800800A750FD8A08BEF12F08DEF12F0E0EF74
:1025180012F0000E1C6E0A0E1B6E7451196E1A6AA8
:1025280019BE1A06D0EC24F0090E19261950040D0C
:10253800010EF324F66EFF0EF420F76EF86A000E13
:10254800F8220900F5CF3AF00900F5CF3BF0090071
:10255800F5CF3CF00A00F5CF3DF0000E166E0A0EDE
:10256800156E00017451136E146A13BE1406E6EC5E
:1025780025F01350040D010EF324F66EFF0EF4201F
:10258800F76EF86A000EF8220900F5CF3EF0090050
:10259800F5CF3FF00900F5CF40F00A00F5CF41F044
:1025A8000EEC15F03AC046F03BC047F03CC048F08E
:1025B8003DC049F0F7EF12F07451040D010EF324F9
:1025C800F66EFF0EF420F76EF86A000EF822090086
:1025D800F5CF46F00900F5CF47F00900F5CF48F0F0
:1025E8000A00F5CF49F0120001011151800B1A6F52
:1025F80011511125206F10AF04EF13F006EF13F0FF
:1026080007EF13F020812051D8B40DEF13F00FEF2E
:1026180013F022EF13F02029D8A415EF13F017EFC9
:1026280013F01FEF13F0000E0E6F000E0F6F000E69
:10263800106F000E116F108F2AEF13F0000E0E6F3F
:10264800000E0F6F000E106F000E116F1551800BEA
:102658001A1B155115251F6F14AF35EF13F037EFFF
:1026680013F038EF13F01F811F51D8B43EEF13F069
:1026780040EF13F053EF13F01F29D8A446EF13F0DF
:1026880048EF13F050EF13F0000E126F000E136FA7
:10269800000E146F000E156F148F5BEF13F0000E11
:1026A800126F000E136F000E146F000E156F1F517E
:1026B800D8B461EF13F063EF13F06BEF13F0205110
:1026C800D8A469EF13F06BEF13F075EF13F0000E59
:1026D8000E6F000E0F6F000E106F000E116F0DEFD2
:1026E80015F014510E03F3CF25F1F4CF26F125513F
:1026F8001B6F1C6B1D6B1E6B2651216F226B236B8E
:10270800246B13510F03F3CF25F1F4CF26F1255194
:102718001B27000E1C231D231E2326512127000ED4
:1027280022232323242312511003F3CF25F1F4CFBE
:1027380026F125511B27000E1C231D231E2326517D
:102748002127000E2223232324231DC11EF11CC18F
:102758001DF11BC11CF11B6B12510F03F3CF25F1A7
:10276800F4CF26F125511B2726511C23000E1D23CB
:10277800000E1E2313510E03F3CF25F1F4CF26F1DB
:1027880025511B2726511C23000E1D23000E1E2336
:102798001DC11EF11CC11DF11BC11CF11B6B125187
:1027A8000E03F3CF25F1F4CF26F125511B2726512F
:1027B8001C23000E1D23000E1E2314510F03F3CFFC
:1027C80025F1F4CF26F12551212726512223000E89
:1027D8002323000E242313511003F3CF25F1F4CF44
:1027E80026F12551212726512223000E2323000EEE
:1027F800242314511003F3CF25F1F4CF26F12551EA
:10280800166F2651176F186B196B18C119F117C17C
:1028180018F116C117F1166B1651212717512223EB
:1028280018512323195124231BC116F11CC117F178
:102838001DC118F11EC119F1190E28EF14F0D89016
:102848001933183317331633E82E23EF14F01651C3
:1028580021271751222318512323195124231DC13D
:102868001EF11CC11DF11BC11CF11B6B1F5120C1A6
:1028780016F1176B1627000E1723820E1625256FE3
:10288800FF0E1721266F5EEF14F0D89021372237FC
:10289800233724371EAF53EF14F055EF14F056EFDB
:1028A80014F02181D8901B371C371D371E37250798
:1028B800D8A0260723AF63EF14F065EF14F049EFB3
:1028C80014F0000E1F6F1EAF6CEF14F06EEF14F0D3
:1028D80092EF14F0FF0E1B15166FFF0E1C15176FE5
:1028E800FF0E1D15186F7F0E1E15196F1651171143
:1028F80018111911D8B483EF14F085EF14F089EF8B
:1029080014F0010E1F6F92EF14F021A18EEF14F056
:1029180090EF14F092EF14F085EF14F01F51D8B433
:1029280098EF14F09AEF14F0BEEF14F0010E21277F
:10293800000E22232323242324A1A5EF14F0A7EFBC
:1029480014F0BEEF14F021C116F122C117F123C112
:1029580018F124C119F119351933183317331633FF
:1029680016C121F117C122F118C123F119C124F1AF
:10297800254B262B26BFC9EF14F0265108E125293F
:10298800D8A0C9EF14F0CBEF14F0D5EF14F0000E77
:10299800216F000E226F800E236F7F0E246F03EFCE
:1029A80015F026BFE2EF14F0265106E12505D8B050
:1029B800E0EF14F0E2EF14F0EEEF14F0000E216FE8
:1029C800000E226F000E236F000E246F000E1A6F88
:1029D80003EF15F025C120F1FF0E2117FF0E221776
:1029E8007F0E2317000E241720A1FDEF14F0FFEF30
:1029F80014F000EF15F0238FD8902031246F1A516E
:102A0800241321C10EF122C10FF123C110F124C1F9
:102A180011F112003D50800B0001636F3D503D24C1
:102A2800696F3CAE1AEF15F01CEF15F01DEF15F0AD
:102A380069816951D8B423EF15F025EF15F038EF07
:102A480015F06929D8A42BEF15F02DEF15F035EF07
:102A580015F0000E3A6E000E3B6E000E3C6E000E36
:102A68003D6E3C8E40EF15F0000E3A6E000E3B6E48
:102A7800000E3C6E000E3D6E4150800B631B4150B2
:102A88004124646F40AE4BEF15F04DEF15F04EEF5B
:102A980015F064816451D8B454EF15F056EF15F071
:102AA80069EF15F06429D8A45CEF15F05EEF15F016
:102AB80066EF15F0000E3E6E000E3F6E000E406E83
:102AC800000E416E408E71EF15F0000E3E6E000E46
:102AD8003F6E000E406E000E416E6451D8B477EF21
:102AE80015F079EF15F081EF15F06951D8A47FEF53
:102AF80015F081EF15F08BEF15F0000E3A6E000E11
:102B08003B6E000E3C6E000E3D6E23EF17F04050FA
:102B18003A02F3CF6EF0F4CF6FF06E51656F666BCB
:102B2800676B686B6F516A6F6B6B6C6B6D6B3F504B
:102B38003B02F3CF6EF0F4CF6FF06E516527000EB5
:102B48006623672368236F516A27000E6B236C2363
:102B58006D233E503C02F3CF6EF0F4CF6FF06E5110
:102B68006527000E6623672368236F516A27000EC6
:102B78006B236C236D2367C068F066C067F065C07F
:102B880066F0656B3E503B02F3CF6EF0F4CF6FF00A
:102B98006E5165276F516623000E6723000E682368
:102BA8003F503A02F3CF6EF0F4CF6FF06E516527C5
:102BB8006F516623000E6723000E682367C068F014
:102BC80066C067F065C066F0656B3E503A02F3CFA9
:102BD8006EF0F4CF6FF06E5165276F516623000ECB
:102BE8006723000E682340503B02F3CF6EF0F4CF0A
:102BF8006FF06E516A276F516B23000E6C23000E25
:102C08006D233F503C02F3CF6EF0F4CF6FF06E515E
:102C18006A276F516B23000E6C23000E6D23405002
:102C28003C02F3CF6EF0F4CF6FF06E51426E6F51ED
:102C3800436E446A456A44C045F043C044F042C00C
:102C480043F0426A42506A2743506B2344506C2336
:102C580045506D2365C042F066C043F067C044F03C
:102C680068C045F0190E3EEF16F0D8904532443250
:102C780043324232E82E39EF16F042506A27435069
:102C88006B2344506C2345506D2367C068F066C0C1
:102C980067F065C066F0656B645169C042F0436ACD
:102CA8004226000E4322820E42246E6FFF0E4320FE
:102CB8006F6F74EF16F0D8906A376B376C376D37D3
:102CC80068AF69EF16F06BEF16F06CEF16F06A81DB
:102CD800D89065376637673768376E07D8A06F07AB
:102CE8006CAF79EF16F07BEF16F05FEF16F0000E81
:102CF800646F68AF82EF16F084EF16F0A8EF16F055
:102D0800FF0E6515426EFF0E6615436EFF0E6715C2
:102D1800446E7F0E6815456E4250431044104510AE
:102D2800D8B499EF16F09BEF16F09FEF16F0010E4E
:102D3800646FA8EF16F06AA1A4EF16F0A6EF16F0DC
:102D4800A8EF16F09BEF16F06451D8B4AEEF16F06A
:102D5800B0EF16F0D4EF16F0010E6A27000E6B23C1
:102D68006C236D236DA1BBEF16F0BDEF16F0D4EF09
:102D780016F06AC042F06BC043F06CC044F06DC0FE
:102D880045F04534453244324332423242C06AF05B
:102D980043C06BF044C06CF045C06DF06E4B6F2BB8
:102DA8006FBFDFEF16F06F5108E16E29D8A0DFEF93
:102DB80016F0E1EF16F0EBEF16F0000E6A6F000E5A
:102DC8006B6F800E6C6F7F0E6D6F19EF17F06FBF12
:102DD800F8EF16F06F5106E16E05D8B0F6EF16F071
:102DE800F8EF16F004EF17F0000E6A6F000E6B6F25
:102DF800000E6C6F000E6D6F000E636F19EF17F009
:102E08006EC069F0FF0E6A17FF0E6B177F0E6C1706
:102E1800000E6D1769A113EF17F015EF17F016EFF5
:102E280017F06C8FD89069316D6F63516D136AC05C
:102E38003AF06BC03BF06CC03CF06DC03DF0120046
:102E48002450800B316E24502424386E23AE2FEF8B
:102E580017F031EF17F032EF17F038803850D8B448
:102E680038EF17F03AEF17F04FEF17F03828D8A4DB
:102E780040EF17F042EF17F04AEF17F0000E216EFF
:102E8800000E226E000E236E000E246E238E000E9E
:102E9800246E57EF17F0000E216E000E226E000E02
:102EA800236E000E246E2850800B311A28502824D7
:102EB800396E27AE62EF17F064EF17F065EF17F081
:102EC80039803950D8B46BEF17F06DEF17F082EFF7
:102ED80017F03928D8A473EF17F075EF17F07DEFC6
:102EE80017F0000E256E000E266E000E276E000EDF
:102EF800286E278E000E286E8AEF17F0000E256EBA
:102F0800000E266E000E276E000E286E2550261025
:102F180027102810D8A493EF17F095EF17F0ADEF0E
:102F280017F0000E216E000E226E000E236E000EAA
:102F3800246E800E23127F0E24123150241221C0D9
:102F480021F022C022F023C023F024C024F0F0EFA7
:102F580018F03850D8A4B3EF17F0B5EF17F0BFEF5B
:102F680017F0000E216E000E226E000E236E000E6A
:102F7800246EF0EF18F0395038C029F02A6A295E1B
:102F8800000E2A5A7F0E2924326E000E2A20336E34
:102F980021C02DF022C02EF023C02FF024C030F025
:102FA800000E216E000E226E000E236E000E246E9F
:102FB800000E346E000E356E000E366E000E376E43
:102FC800000E396E20EF18F03950D8B4EEEF17F034
:102FD800F0EF17F007EF18F0D8902D362E362F3671
:102FE8003036D890213622362336243637AEFFEFD6
:102FF80017F001EF18F002EF18F02180D89034365E
:1030080035363636373625502D5C26502E58275003
:103018002F5828503058D8A014EF18F016EF18F091
:103028001FEF18F0378C25502D5E26502E5A27504A
:103038002F5A2850305A392A190E396426EF18F0B9
:1030480028EF18F0E8EF17F02D502E102F10301041
:10305800D8B431EF18F033EF18F04BEF18F0348094
:103068004BEF18F0D890213622362336243637AE67
:1030780040EF18F042EF18F043EF18F02180D89095
:1030880034363536363637363206D8A0330623AED0
:1030980050EF18F052EF18F036EF18F0000E396EB6
:1030A80037AE59EF18F05BEF18F07FEF18F0FF0E0E
:1030B8003414296EFF0E35142A6EFF0E36142B6E4B
:1030C8007F0E37142C6E29502A102B102C10D8B4D0
:1030D80070EF18F072EF18F076EF18F0010E396EF5
:1030E8007FEF18F021A07BEF18F07DEF18F07FEF4D
:1030F80018F072EF18F03950D8B485EF18F087EF50
:1031080018F0ABEF18F0010E2126000E2222232220
:10311800242224A092EF18F094EF18F0ABEF18F0E7
:1031280021C029F022C02AF023C02BF024C02CF0A3
:103138002C342C322B322A32293229C021F02AC0D1
:1031480022F02BC023F02CC024F0324A332A33BE9D
:10315800B6EF18F0335008E13228D8A0B6EF18F0CF
:10316800B8EF18F0C3EF18F0000E336E3268000E97
:10317800216E000E226E000E236E000E246E33BEEA
:10318800D0EF18F0335006E13204D8B0CEEF18F083
:10319800D0EF18F0DEEF18F0000E336E000E326E2E
:1031A800000E216E000E226E000E236E000E246E9D
:1031B800000E316E32C038F038A0E5EF18F0E7EFB6
:1031C80018F0EAEF18F0238EEBEF18F0239ED89052
:1031D8003830246EA1EF17F012000101336F6D0E25
:1031E80001013365FAEF18F0FCEF18F0B7EF19F0AA
:1031F800000E126F000E136F000E146F3F0E156F46
:10320800000E086F640E076F33C105F1066B64EC9E
:1032180028F00101D89005370637D89005370637CA
:10322800480E0527000E0623350E0525F66EFF0EFF
:103238000621F76EF86A000EF8220900F5CF0EF1A4
:103248000900F5CF0FF10900F5CF10F10A00F5CF0D
:1032580011F1F8EC12F00EC12FF10FC130F110C1CD
:1032680031F111C132F1000E0101086F0A0E076F2A
:10327800000E036F640E026F33C100F1016BD9ECCD
:1032880028F000C105F101C106F164EC28F0010144
:10329800D89005370637D89005370637240E052706
:1032A800000E0623350E0525F66EFF0E0621F76E75
:1032B800F86A000EF8220900F5CF12F10900F5CFDF
:1032C80013F10900F5CF14F10A00F5CF15F12FC15C
:1032D8000EF130C10FF131C110F132C111F1F8EC2A
:1032E80012F00EC12BF10FC12CF110C12DF111C13B
:1032F8002EF12BC10EF12CC10FF12DC110F12EC1F1
:1033080011F1000E0101036F0A0E026F33C100F1C3
:10331800016BD9EC28F00101D89000370137D8901B
:1033280000370137350E0025F66EFF0E0121F76EC6
:10333800F86A000EF8220900F5CF12F10900F5CF5E
:1033480013F10900F5CF14F10A00F5CF15F1F8ECE7
:1033580012F00EC127F10FC128F110C129F111C1D6
:103368002AF15DEF1AF00A0E3365BDEF19F0BFEFD1
:1033780019F034EF1AF0000E126F000E136F000EE2
:10338800146F3F0E156F000E086F0A0E076F33C1DA
:1033980005F1066B64EC28F00101D8900537063773
:1033A800D89005370637240E0527000E0623350E5C
:1033B8000525F66EFF0E0621F76EF86A000EF82254
:1033C8000900F5CF0EF10900F5CF0FF10900F5CF8F
:1033D80010F10A00F5CF11F1F8EC12F00EC12FF13F
:1033E8000FC130F110C131F111C132F12FC10EF10D
:1033F80030C10FF131C110F132C111F1000E0101DC
:10340800036F0A0E026F33C100F1016BD9EC28F08B
:103418000101D89000370137D89000370137350EB1
:103428000025F66EFF0E0121F76EF86A000EF822ED
:103438000900F5CF12F10900F5CF13F10900F5CF16
:1034480014F10A00F5CF15F1F8EC12F00EC127F1CE
:103458000FC128F110C129F111C12AF15DEF1AF04D
:103468003351040D350EF324F66EFF0EF420F76E7B
:10347800F86A000EF8220900F5CF0EF10900F5CF21
:103488000FF10900F5CF10F10A00F5CF11F1000E88
:10349800126F000E136F000E146F3F0E156FF8ECCD
:1034A80012F00EC127F10FC128F110C129F111C185
:1034B8002AF112000001786F6D0E0001786567EF40
:1034C8001AF069EF1AF01FEF1BF0000E3E6E000EA7
:1034D8003F6E000E406E3F0E416E000E1B6E640E76
:1034E8001A6E78C018F0196A9FEC28F0D890183630
:1034F8001936D89018361936480E1826000E192293
:10350800350E1824F66EFF0E1920F76EF86A000EB5
:10351800F8220900F5CF3AF00900F5CF3BF0090091
:10352800F5CF3CF00A00F5CF3DF00EEC15F03AC0AF
:1035380074F03BC075F03CC076F03DC077F0000EEB
:103548001B6E0A0E1A6E000E166E640E156E78C08B
:1035580013F0146A0CEC29F013C018F014C019F019
:103568009FEC28F0D89018361936D89018361936A6
:10357800240E1826000E1922350E1824F66EFF0E9A
:103588001920F76EF86A000EF8220900F5CF3EF010
:103598000900F5CF3FF00900F5CF40F00A00F5CF5C
:1035A80041F074C03AF075C03BF076C03CF077C08B
:1035B8003DF00EEC15F03AC070F03BC071F03CC025
:1035C80072F03DC073F070C03AF071C03BF072C049
:1035D8003CF073C03DF0000E166E0A0E156E78C0F2
:1035E80013F0146A0CEC29F0D89013361436D890DE
:1035F80013361436350E1324F66EFF0E1420F76EAC
:10360800F86A000EF8220900F5CF3EF00900F5CF60
:103618003FF00900F5CF40F00A00F5CF41F00EEC7D
:1036280015F03AC046F03BC047F03CC048F03DC0FA
:1036380049F0C2EF1BF00A0E786525EF1BF027EF63
:103648001BF099EF1BF0000E3E6E000E3F6E000E51
:10365800406E3F0E416E000E1B6E0A0E1A6E78C049
:1036680018F0196A9FEC28F0D89018361936D890B7
:1036780018361936240E1826000E1922350E18246D
:10368800F66EFF0E1920F76EF86A000EF822090090
:10369800F5CF3AF00900F5CF3BF00900F5CF3CF043
:1036A8000A00F5CF3DF00EEC15F03AC074F03BC0BF
:1036B80075F03CC076F03DC077F074C03AF075C044
:1036C8003BF076C03CF077C03DF0000E166E0A0E57
:1036D800156E78C013F0146A0CEC29F0D8901336E4
:1036E8001436D89013361436350E1324F66EFF0EA2
:1036F8001420F76EF86A000EF8220900F5CF3EF0A4
:103708000900F5CF3FF00900F5CF40F00A00F5CFEA
:1037180041F00EEC15F03AC046F03BC047F03CC013
:1037280048F03DC049F0C2EF1BF07851040D350E4A
:10373800F324F66EFF0EF420F76EF86A000EF822F6
:103748000900F5CF3AF00900F5CF3BF00900F5CFB5
:103758003CF00A00F5CF3DF0000E3E6E000E3F6EC5
:10376800000E406E3F0E416E0EEC15F03AC046F06A
:103778003BC047F03CC048F03DC049F01200D9CFEB
:1037880008F0DACF09F0F6CF0AF0F7CF0BF0F8CF50
:103798000CF0F5CF0DF09EAAD4EF1BF0D6EF1BF07E
:1037A80096EF1CF0AB98530EE82EFED70000AE50F3
:1037B800AB88E9EC29F0126E8E0E4B24D96E010EFF
:1037C8004C20DA6E12C0DFFF4B4A4C2A0A0E121840
:1037D800D8A4F1EF1BF0F3EF1BF0FEEF1BF04C50F9
:1037E80007E1030E4B5CD8B0FCEF1BF0FEEF1BF0BB
:1037F80009EF1CF04C5009E10C0E4B5CD8A007EF08
:103808001CF009EF1CF0DDEF1BF0000E4C6E000EF3
:103818004B6E900E016E010E026EDF0E036EFF0EF0
:10382800046E000E066E080E056E8EEC27F0015031
:103838000210D8A422EF1CF024EF1CF051EF1CF06A
:10384800D00E010198250E6E0F6AFF0E0F22D00EC2
:103858009925106E116AFF0E11220E500F10D8B460
:1038680038EF1CF03AEF1CF03EEF1CF06DEC2BF03B
:1038780040EF1CF077EC2BF010501110D8B447EF44
:103888001CF049EF1CF04DEF1CF059EC2BF096EFB3
:103898001CF063EC2BF096EF1CF08F0E016E010EFE
:1038A800026EE80E036EFF0E046E000E066E070E23
:1038B800056E8EEC27F001500210D8A466EF1CF0BC
:1038C80068EF1CF073EF1CF0D58E670ED76E6A0E8A
:1038D800D66EF294010E01016F6F96EF1CF08F0EF9
:1038E800016E010E026EF70E036EFF0E046E000EDF
:1038F800066E060E056E8EEC27F001500210D8A455
:1039080088EF1CF08AEF1CF096EF1CF0D59E8E0E07
:10391800016E010E026E28EC2AF0000E01016F6F95
:1039280096EF1CF0B8820DC0F5FF0CC0F8FF0BC075
:10393800F7FF0AC0F6FF09C0DAFF08C0D9FF4D92A9
:1039480011000101086F01010851D8B4AEEF1CF055
:10395800B0EF1CF0D2EF1CF003BFB7EF1CF0B5EFCF
:103968001CF0D2EF1CF000C104F101C105F102C145
:1039780006F103C107F1041F051F061F071F042BCB
:10398800000E05230623072304C10AF105C10BF124
:1039980006C10CF107C10DF1DAEF1CF000C10AF104
:1039A80001C10BF102C10CF103C10DF1005101116C
:1039B80002110311D8A4E3EF1CF0E5EF1CF0EFEFC0
:1039C8001CF0000E006F000E016F000E026F000E5B
:1039D800036F80EF1DF0960E096FF9EF1CF0092BAD
:1039E800D8900D330C330B330A33000E0A15046FCD
:1039F800000E0B15056F000E0C15066FFE0E0D154B
:103A0800076F0451051106110711D8A40EEF1DF018
:103A180010EF1DF0F3EF1CF01EEF1DF0092B010E47
:103A28000A27000E0B230C230D23D8900D330C33DB
:103A38000B330A33000E0A15046F000E0B15056FC1
:103A4800000E0C15066FFF0E0D15076F04510511BA
:103A580006110711D8A433EF1DF035EF1DF012EF52
:103A68001DF03DEF1DF00907D8900A370B370C37CA
:103A78000D370CBF42EF1DF044EF1DF04CEF1DF069
:103A8800020E09614AEF1DF04CEF1DF037EF1DF0F3
:103A980009B151EF1DF053EF1DF054EF1DF00C9FCD
:103AA800D890093309C104F1056B066B076B04C193
:103AB80007F1066B056B046B04510A1305510B13D0
:103AC80006510C1307510D130851D8B46EEF1DF0B1
:103AD80070EF1DF078EF1DF003BF77EF1DF075EF65
:103AE8001DF078EF1DF00D8F0AC100F10BC101F137
:103AF8000CC102F10DC103F112001B6E1B50D8B4AA
:103B080088EF1DF08AEF1DF0ACEF1DF016BE91EFA7
:103B18001DF08FEF1DF0ACEF1DF013C017F014C0AF
:103B280018F015C019F016C01AF0171E181E191E25
:103B38001A1E172A000E182219221A2217C01DF061
:103B480018C01EF019C01FF01AC020F0B4EF1DF005
:103B580013C01DF014C01EF015C01FF016C020F0D1
:103B68001350141015101610D8A4BDEF1DF0BFEF98
:103B78001DF0C9EF1DF0000E136E000E146E000E3E
:103B8800156E000E166E5AEF1EF0960E1C6ED3EFD1
:103B98001DF01C2AD89020321F321E321D32000E12
:103BA8001D14176E000E1E14186E000E1F14196EC9
:103BB800FE0E20141A6E1750181019101A10D8A4D7
:103BC800E8EF1DF0EAEF1DF0CDEF1DF0F8EF1DF066
:103BD8001C2A010E1D26000E1E221F222022D8900C
:103BE80020321F321E321D32000E1D14176E000EB9
:103BF8001E14186E000E1F14196EFF0E20141A6E74
:103C08001750181019101A10D8A40DEF1EF00FEF46
:103C18001EF0ECEF1DF017EF1EF01C06D8901D36B5
:103C28001E361F3620361FBE1CEF1EF01EEF1EF07C
:103C380026EF1EF0020E1C6024EF1EF026EF1EF089
:103C480011EF1EF01CB02BEF1EF02DEF1EF02EEF23
:103C58001EF01F9ED8901C321CC017F0186A196AF3
:103C68001A6A17C01AF0196A186A176A17501D12CB
:103C780018501E1219501F121A5020121B50D8B477
:103C880048EF1EF04AEF1EF052EF1EF016BE51EF3D
:103C98001EF04FEF1EF052EF1EF0208E1DC013F0E5
:103CA8001EC014F01FC015F020C016F0120002C18B
:103CB80008F10101096B0A6B0135083701E3098135
:103CC8000851106F1051D8A46CEF1EF06EEF1EF063
:103CD80078EF1EF0000E006F000E016F000E026FED
:103CE800000E036F06EF1FF006C108F1096B0A6B9F
:103CF8000535083701E3098108510F6F0F51D8A422
:103D080088EF1EF08AEF1EF08CEF1EF06EEF1EF0AB
:103D1800018FFF0E0017FF0E0117000E0217058F07
:103D2800FF0E0417FF0E0517000E0617000E0B6F87
:103D3800000E0C6F000E0D6F000E0E6F7F0E105FE1
:103D48000F51980F105F180E0F6FD8900B370C3764
:103D58000D370E370451005D0551015906510259BE
:103D6800D8A0B9EF1EF0BBEF1EF0C2EF1EF0045151
:103D7800005F0551015B0651025B0B81D89000374B
:103D8800013702370F2FA9EF1EF010BFD0EF1EF03A
:103D9800CEEF1EF0E6EF1EF01051800A970FD8B054
:103DA800D8EF1EF0DAEF1EF0DCEF1EF06EEF1EF01B
:103DB800D8900E330D330C330B33103FDCEF1EF06D
:103DC800FEEF1EF0170E1065ECEF1EF0EEEF1EF082
:103DD800F6EF1EF06EEF1EF0D8900B370C370D374C
:103DE8000E3710071051D8A4FCEF1EF0FEEF1EF09E
:103DF800F0EF1EF00BC100F10CC101F10DC102F191
:103E08000EC103F1120015C01BF01C6A1D6A1434A0
:103E18001B3601E31C801B50236E2350D8A417EFD8
:103E28001FF019EF1FF023EF1FF0000E136E000EA6
:103E3800146E000E156E000E166EB1EF1FF019C04D
:103E48001BF01C6A1D6A18341B3601E31C801B50CA
:103E5800226E2250D8A433EF1FF035EF1FF037EF52
:103E68001FF019EF1FF0148EFF0E1316FF0E141615
:103E7800000E1516188EFF0E1716FF0E1816000ED8
:103E88001916000E1E6E000E1F6E000E206E000E1C
:103E9800216E7F0E235E2250980F235E180E226E2D
:103EA800D8901E361F36203621361750135C18500E
:103EB800145819501558D8A064EF1FF066EF1FF07A
:103EC8006DEF1FF01750135E1850145A1950155AF9
:103ED8001E80D890133614361536222E54EF1FF054
:103EE80023BE7BEF1FF079EF1FF091EF1FF02350F7
:103EF800800A970FD8B083EF1FF085EF1FF087EF88
:103F08001FF019EF1FF0D890213220321F321E32D5
:103F1800233E87EF1FF0A9EF1FF0170E236497EFDA
:103F28001FF099EF1FF0A1EF1FF019EF1FF0D890C5
:103F38001E361F362036213623062350D8A4A7EF75
:103F48001FF0A9EF1FF09BEF1FF01EC013F01FC05A
:103F580014F020C015F021C016F01200010102353E
:103F680003350D6F0D51D8A4BCEF1FF0BEEF1FF045
:103F7800C8EF1FF0000E006F000E016F000E026FF9
:103F8800000E036F58EF20F0063507350C6F0C5103
:103F9800D8A4D1EF1FF0D3EF1FF0D5EF1FF0BEEF7D
:103FA8001FF0028FFF0E0017FF0E0117FF0E0217FA
:103FB800000E0317068FFF0E0417FF0E0517FF0EDE
:103FC8000617000E0717000E086F000E096F000E87
:103FD8000A6F000E0B6F7F0E0D5F0C51A00F0D5F67
:103FE800200E0C6FD890083709370A370B37045161
:103FF800005D055101590651025907510359D8A0CE
:1040080008EF20F00AEF20F013EF20F00451005FD2
:104018000551015B0651025B0751035B0881D8908B
:1040280000370137023703370C2FF6EF1FF00DBFAB
:1040380022EF20F020EF20F038EF20F00D51800A19
:104048009F0FD8B02AEF20F02CEF20F02EEF20F0B1
:10405800BEEF1FF0D8900B330A33093308330D3FF6
:104068002EEF20F050EF20F01F0E0D653EEF20F0F0
:1040780040EF20F048EF20F0BEEF1FF0D89008374F
:1040880009370A370B370D070D51D8A44EEF20F02A
:1040980050EF20F042EF20F008C100F109C101F112
:1040A8000AC102F10BC103F1120015341634206E57
:1040B8002050D8A462EF20F064EF20F06EEF20F0DB
:1040C800000E136E000E146E000E156E000E166EA6
:1040D800FEEF20F019341A341F6E1F50D8A477EF62
:1040E80020F079EF20F07BEF20F064EF20F0158EC0
:1040F800FF0E1316FF0E1416FF0E1516000E1616D9
:10410800198EFF0E1716FF0E1816FF0E1916000E41
:104118001A16000E1B6E000E1C6E000E1D6E000E91
:104128001E6E7F0E205E1F50A00F205E200E1F6E99
:10413800D8901B361C361D361E361750135C185087
:104148001458195015581A501658D8A0AEEF20F028
:10415800B0EF20F0B9EF20F01750135E1850145A42
:104168001950155A1A50165A1B80D89013361436FF
:10417800153616361F2E9CEF20F020BEC8EF20F013
:10418800C6EF20F0DEEF20F02050800A9F0FD8B055
:10419800D0EF20F0D2EF20F0D4EF20F064EF20F041
:1041A800D8901E321D321C321B32203ED4EF20F034
:1041B800F6EF20F01F0E2064E4EF20F0E6EF20F089
:1041C800EEEF20F064EF20F0D8901B361C361D3639
:1041D8001E3620062050D8A4F4EF20F0F6EF20F089
:1041E800E8EF20F01BC013F01CC014F01DC015F040
:1041F8001EC016F01200010129352A35306F3051E2
:10420800D8A409EF21F00BEF21F015EF21F0000EF3
:10421800276F000E286F000E296F000E2A6F82EF9D
:1042280021F027C12BF128C12CF129C12DF12AC178
:104238002EF1200E25EF21F0D8902E332D332C337C
:104248002B33E82E20EF21F02B512F6F298FFF0EF3
:104258002717FF0E2817FF0E2917000E2A17960E8C
:10426800305F30BF3CEF21F03AEF21F052EF21F000
:104278003051800A970FD8B044EF21F046EF21F073
:1042880048EF21F00BEF21F0D8902A332933283357
:104298002733303F48EF21F06AEF21F01F0E3065D9
:1042A80058EF21F05AEF21F062EF21F00BEF21F0E7
:1042B800D8902737283729372A3730073051D8A4DC
:1042C80068EF21F06AEF21F05CEF21F02F51D8B4AC
:1042D80070EF21F072EF21F07AEF21F02A1F291FE9
:1042E800281F276D000E282329232A2327C127F1F9
:1042F80028C128F129C129F12AC12AF11200000197
:10430800773578357E6F7E51D8A48DEF21F08FEF09
:1043180021F099EF21F0000E756F000E766F000EF8
:10432800776F000E786F06EF22F075C079F076C0CF
:104338007AF077C07BF078C07CF0200EA9EF21F0EE
:10434800D8907C337B337A337933E82EA4EF21F08D
:1043580079517D6F778FFF0E7517FF0E7617FF0E59
:104368007717000E7817960E7E5F7EBFC0EF21F09C
:10437800BEEF21F0D6EF21F07E51800A970FD8B01A
:10438800C8EF21F0CAEF21F0CCEF21F08FEF21F038
:10439800D89078337733763375337E3FCCEF21F07E
:1043A800EEEF21F01F0E7E65DCEF21F0DEEF21F04D
:1043B800E6EF21F08FEF21F0D89075377637773711
:1043C80078377E077E51D8A4ECEF21F0EEEF21F08C
:1043D800E0EF21F07D51D8B4F4EF21F0F6EF21F0B1
:1043E800FEEF21F0781F771F761F756D000E76237C
:1043F8007723782375C075F076C076F077C077F0AC
:1044080078C078F01200000E01010015086F000E48
:104418000115096F800E02150A6F7F0E03150B6FC9
:10442800085109110A110B11D8A41DEF22F01FEF32
:1044380022F027EF22F0000E006F000E016F000E31
:10444800026F000E036F000E0415086F000E0515AD
:10445800096F800E06150A6F7F0E07150B6F08513E
:1044680009110A110B11D8A43CEF22F03EEF22F0FB
:1044780046EF22F0000E046F000E056F000E066F67
:10448800000E076F03AF4BEF22F04DEF22F056EF0F
:1044980022F0006D011FD8B0012B021FD8B0022BEB
:1044A800800E035707AF5BEF22F05DEF22F066EF57
:1044B80022F0046D051FD8B0052B061FD8B0062BB7
:1044C800800E0757000E001B000E011B000E021B7A
:1044D800800E031B000E041B000E051B000E061B9E
:1044E800800E071B0451005D055101590651025900
:1044F80007510359D8B083EF22F085EF22F088EFF7
:1045080022F0D89089EF22F0D8801200000E131400
:104518001B6E000E14141C6E800E15141D6E7F0E7B
:1045280016141E6E1B501C101D101E10D8A49FEFD1
:1045380022F0A1EF22F0A9EF22F0000E136E000E78
:10454800146E000E156E000E166E000E17141B6EFC
:10455800000E18141C6E800E19141D6E7F0E1A148E
:104568001E6E1B501C101D101E10D8A4BEEF22F08A
:10457800C0EF22F0C8EF22F0000E176E000E186E82
:10458800000E196E000E1A6E16AECDEF22F0CFEFA8
:1045980022F0D8EF22F0136C141ED8B0142A151E7E
:1045A800D8B0152A800E16561AAEDDEF22F0DFEFCE
:1045B80022F0E8EF22F0176C181ED8B0182A191E3E
:1045C800D8B0192A800E1A56000E131A000E141AA3
:1045D800000E151A800E161A000E171A000E181A59
:1045E800000E191A800E1A1A1750135C1850145816
:1045F800195015581A501658D8B005EF23F007EF80
:1046080023F00AEF23F0D8900BEF23F0D8801200A4
:10461800000E00018D6F000E8E6F000E8F6F000E62
:10462800906F93EC2BF0800E21EC2BF0E50E21EC33
:104638002BF08AEC2BF093EC2BF0810E21EC2BF075
:10464800000EB4EC2AF00001926F916B010EB4ECED
:104658002AF04A6E4A50000191138AEC2BF0000EA2
:104668003E6E000E3F6EFA0E406E420E416E000E18
:10467800256E000E266E800E276E470E286E91C09E
:1046880013F092C014F0156A166A000E81EC1DF042
:1046980013C021F014C022F015C023F016C024F076
:1046A80024EC17F021C03AF022C03BF023C03CF0C4
:1046B80024C03DF00EEC15F03AC079F03BC07AF01A
:1046C8003CC07BF03DC07CF0000E00017D6F000E09
:1046D8007E6FC00E7F6FC00E806F2DEC0CF079C01E
:1046E8008DF07AC08EF07BC08FF07CC090F08DC0CA
:1046F80089F08EC08AF08FC08BF090C08CF01200C9
:10470800000E00018D6F000E8E6F000E8F6F000E71
:10471800906F93EC2BF0800E21EC2BF0E30E21EC44
:104728002BF08AEC2BF093EC2BF0810E21EC2BF084
:10473800000EB4EC2AF00001926F916B010EB4ECFC
:104748002AF04A6E4A50000191138AEC2BF0520E5F
:104758003E6EB80E3F6E2F0E406E430E416E000E39
:10476800256E000E266E800E276E470E286E91C0AD
:1047780013F092C014F0156A166A000E81EC1DF051
:1047880013C021F014C022F015C023F016C024F085
:1047980024EC17F021C03AF022C03BF023C03CF0D3
:1047A80024C03DF00EEC15F03AC079F03BC07AF029
:1047B8003CC07BF03DC07CF0660E00017D6F660E4C
:1047C8007E6F3B0E7F6FC20E806F2DEC0CF079C0B0
:1047D8008DF07AC08EF07BC08FF07CC090F08DC0D9
:1047E80089F08EC08AF08FC08BF090C08CF01200D8
:1047F800AB986CC14CF16DC14DF1F00E01014E6FDB
:10480800FF0E4F6F9FEC00F06CC101F16DC102F11A
:1048180086EC29F0620E01016E6F650EE82EFED758
:104828006E2FFCD700D06CC14CF16DC14DF1C70E95
:1048380001014E6FFF0E4F6F9FEC00F06CC101F14C
:104848006DC102F186EC29F0620E01016E6F650EF2
:10485800E82EFED76E2FFCD700D06CC14CF16DC18D
:104868004DF1B80E01014E6FFF0E4F6F9FEC00F037
:104878006CC101F16DC102F186EC29F0620E0101F3
:104888006E6F650EE82EFED76E2FFCD700D06CC178
:104898004CF16DC14DF1910E01014E6FFF0E4F6F3E
:1048A8009FEC00F06CC101F16DC102F186EC29F0BA
:1048B800620E01016E6F650EE82EFED76E2FFCD7D3
:1048C80000D0AB886CC100F16DC101F109EC2AF090
:1048D8001200000E01010B6F09BF77EF24F075EF8E
:1048E80024F07DEF24F0086D091FD8B0092B010EC4
:1048F8000B6F07BF84EF24F082EF24F08AEF24F0D7
:10490800066D071FD8B0072B010E0B1B000E0D6F8D
:10491800000E0C6F08510911D8B495EF24F097EFE9
:1049280024F0BFEF24F0010E0A6F9FEF24F0D89017
:10493800083709370A2B09AFA4EF24F0A6EF24F0B3
:104948009BEF24F0D8900C370D370851065D0951BC
:104958000759D8A0B2EF24F0B4EF24F0B9EF24F04F
:104968000851065F0951075B0C81D8900933083359
:104978000A2FA6EF24F00B51D8B4C5EF24F0C7EFE7
:1049880024F0CBEF24F00C6D0D1FD8B00D2B0CC10B
:1049980006F10DC107F11200000E1E6E1CBED9EF04
:1049A80024F0D7EF24F0DFEF24F01B6C1C1ED8B0E6
:1049B8001C2A010E1E6E1ABEE6EF24F0E4EF24F066
:1049C800ECEF24F0196C1A1ED8B01A2A010E1E1A20
:1049D800000E206E000E1F6E1B501C10D8B4F7EF8F
:1049E80024F0F9EF24F021EF25F0010E1D6E01EF00
:1049F80025F0D8901B361C361D2A1CAE06EF25F074
:104A080008EF25F0FDEF24F0D8901F3620361B5014
:104A1800195C1C501A58D8A014EF25F016EF25F091
:104A28001BEF25F01B50195E1C501A5A1F80D89096
:104A38001C321B321D2E08EF25F01E50D8B427EF6C
:104A480025F029EF25F02DEF25F01F6C201ED8B09A
:104A5800202A1FC019F020C01AF012000101006FAF
:104A6800948E948C0F013A9F3A9D9D989D8AB886A2
:104A780068EF25F0190EAF6E000EB06E88EF25F0C6
:104A8800330EAF6E000EB06E88EF25F0670EAF6E76
:104A9800000EB06E88EF25F0CF0EAF6E000EB06E30
:104AA80088EF25F0A00EAF6E010EB06E88EF25F0EE
:104AB800400EAF6E030EB06E88EF25F0820EAF6E1B
:104AC800060EB06E88EF25F001010051010AD8B436
:104AD8003EEF25F0030AD8B444EF25F0060AD8B40F
:104AE8004AEF25F00C0AD8B450EF25F0180AD8B4CC
:104AF80056EF25F0300AD8B45CEF25F0600AD8B438
:104B080062EF25F050EF25F0240EAC6E900EAB6EE0
:104B18001200000E0101056F01BF97EF25F095EF18
:104B280025F09DEF25F0006D011FD8B0012B010E77
:104B3800056F03BFA4EF25F0A2EF25F0A8EF25F03D
:104B4800026D031FD8B0032B02510311D8B4AFEF85
:104B580025F0B1EF25F0D5EF25F0010E046FB9EF80
:104B680025F0D89002370337042B03AFBEEF25F0AA
:104B7800C0EF25F0B5EF25F00251005D0351015952
:104B8800D8A0C9EF25F0CBEF25F0CFEF25F00251E3
:104B9800005F0351015BD89003330233042FC0EF49
:104BA80025F00551D8B4DBEF25F0DDEF25F0E1EF76
:104BB80025F0006D011FD8B0012B00C100F101C123
:104BC80001F11200000E186E14BEEFEF25F0EDEFA4
:104BD80025F0F5EF25F0136C141ED8B0142A010E39
:104BE800186E16BEFCEF25F0FAEF25F000EF26F060
:104BF800156C161ED8B0162A15501610D8B407EF23
:104C080026F009EF26F02DEF26F0010E176E11EFB2
:104C180026F0D89015361636172A16AE16EF26F057
:104C280018EF26F00DEF26F01550135C16501458A7
:104C3800D8A021EF26F023EF26F027EF26F0155015
:104C4800135E1650145AD89016321532172E18EFD4
:104C580026F01850D8B433EF26F035EF26F039EFA8
:104C680026F0136C141ED8B0142A13C013F014C005
:104C780014F01200000E01010015086F000E011556
:104C8800096F800E02150A6F7F0E03150B6F08510E
:104C980009110A110B11D8A454EF26F056EF26F08B
:104CA8005EEF26F0000E006F000E016F000E026F1F
:104CB800000E036F000E0415086F000E0515096F2E
:104CC800800E06150A6F7F0E07150B6F0851091124
:104CD8000A110B11D8A473EF26F075EF26F07DEFBB
:104CE80026F0000E046F000E056F000E066F000E12
:104CF800076F045100190FE1055101190CE1065124
:104D0800021909E107510319D8B48DEF26F08FEF86
:104D180026F092EF26F0D89093EF26F0D880120074
:104D2800000E13141B6E000E14141C6E800E151446
:104D38001D6E7F0E16141E6E1B501C101D101E10AB
:104D4800D8A4A9EF26F0ABEF26F0B3EF26F0000EBB
:104D5800136E000E146E000E156E000E166E000E09
:104D680017141B6E000E18141C6E800E19141D6E7D
:104D78007F0E1A141E6E1B501C101D101E10D8A476
:104D8800C8EF26F0CAEF26F0D2EF26F0000E176E15
:104D9800000E186E000E196E000E1A6E17501318BA
:104DA8000FE1185014180CE11950151809E11A50A0
:104DB8001618D8B4E2EF26F0E4EF26F0E7EF26F075
:104DC800D890E8EF26F0D8801200000E0101086F95
:104DD800000E096F000E0A6F000E0B6F04510511CB
:104DE80006110711D8B4FBEF26F0FDEF26F033EFDC
:104DF80027F0010E0C6F07EF27F0D890043705371E
:104E0800063707370C2B07AF0CEF27F00EEF27F00C
:104E180001EF27F0D890083709370A370B370451C4
:104E2800005D055101590651025907510359D8A08F
:104E380020EF27F022EF27F02BEF27F00451005F37
:104E48000551015B0651025B0751035B0881D8904D
:104E580007330633053304330C2F0EEF27F008C150
:104E680000F109C101F10AC102F10BC103F11200FD
:104E7800000E1B6E000E1C6E000E1D6E000E1E6EC8
:104E88001750181019101A10D8B44DEF27F04FEF1B
:104E980027F085EF27F0010E1F6E59EF27F0D89005
:104EA8001736183619361A361F2A1AAE5EEF27F04B
:104EB80060EF27F053EF27F0D8901B361C361D36CD
:104EC8001E361750135C18501458195015581A509C
:104ED8001658D8A072EF27F074EF27F07DEF27F06F
:104EE8001750135E1850145A1950155A1A50165A5A
:104EF8001B80D8901A321932183217321F2E60EFE1
:104F080027F01BC013F01CC014F01DC015F01EC004
:104F180016F01200C9EF27F001C0D9FF02C0DAFF6E
:104F2800DF50D8B49AEF27F09CEF27F0B1EF27F0C5
:104F380001C0D9FF02C0DAFFDF50076E03C0F6FFD9
:104F480004C0F7FFF86A0800F5500718D8B4AFEFA7
:104F580027F0B1EF27F0C5EF27F001C0D9FF02C055
:104F6800DAFFDF50076E03C0F6FF04C0F7FFF86AE8
:104F78000800F550075C016E026AD8A00206DAEF55
:104F880027F0014A022A034A042A0506D8A0060681
:104F9800052806E10628D8A4D4EF27F0D6EF27F095
:104FA80090EF27F0000E026E000E016E1200010154
:104FB8000451051106110711D8B4E5EF27F0E7EF02
:104FC80027F017EF28F0010E086FF1EF27F0D890BF
:104FD8000437053706370737082B07AFF6EF27F0F2
:104FE800F8EF27F0EBEF27F00451005D0551015968
:104FF8000651025907510359D8A005EF28F007EFC9
:1050080028F00FEF28F00451005F0551015B0651AD
:10501800025B0751035BD89007330633053304332B
:10502800082FF8EF27F000C100F101C101F102C11A
:1050380002F103C103F112001750181019101A10C9
:10504800D8B429EF28F02BEF28F05BEF28F0010EF9
:105058001B6E35EF28F0D8901736183619361A36E1
:105068001B2A1AAE3AEF28F03CEF28F02FEF28F071
:105078001750135C18501458195015581A501658D0
:10508800D8A049EF28F04BEF28F053EF28F017503D
:10509800135E1850145A1950155A1A50165AD890A7
:1050A8001A321932183217321B2E3CEF28F013C06F
:1050B80013F014C014F015C015F016C016F0120045
:1050C800000E01010A6F000E096F07510811D8B4CC
:1050D80070EF28F072EF28F09AEF28F0010E0B6FAE
:1050E8007AEF28F0D890073708370B2B08AF7FEFF7
:1050F80028F081EF28F076EF28F0D89009370A37A2
:105108000751055D08510659D8A08DEF28F08FEF9B
:1051180028F094EF28F00751055F0851065B0981D4
:10512800D890083307330B2F81EF28F009C105F118
:105138000AC106F11200000E1D6E000E1C6E1A50F8
:105148001B10D8B4AAEF28F0ACEF28F0D4EF28F061
:10515800010E1E6EB4EF28F0D8901A361B361E2AA0
:105168001BAEB9EF28F0BBEF28F0B0EF28F0D890CD
:105178001C361D361A50185C1B501958D8A0C7EF9A
:1051880028F0C9EF28F0CEEF28F01A50185E1B500F
:10519800195A1C80D8901B321A321E2EBBEF28F0E9
:1051A8001CC018F01DC019F01200010102510311B2
:1051B800D8B4E1EF28F0E3EF28F007EF29F0010E6B
:1051C800046FEBEF28F0D89002370337042B03AFB6
:1051D800F0EF28F0F2EF28F0E7EF28F00251005D39
:1051E80003510159D8A0FBEF28F0FDEF28F001EF9B
:1051F80029F00251005F0351015BD8900333023359
:10520800042FF2EF28F000C100F101C101F11200F2
:1052180015501610D8B413EF29F015EF29F039EF0F
:1052280029F0010E176E1DEF29F0D89015361636A5
:10523800172A16AE22EF29F024EF29F019EF29F0EA
:105248001550135C16501458D8A02DEF29F02FEFE5
:1052580029F033EF29F01550135E1650145AD890E0
:1052680016321532172E24EF29F013C013F014C08C
:1052780014F01200000E0101481B000E491B000E1D
:105288004A1B800E4B1B44C134F145C135F146C160
:1052980036F147C137F148C138F149C139F14AC13E
:1052A8003AF14BC13BF1CCEC09F034C144F135C1C2
:1052B80045F136C146F137C147F11200000E000131
:1052C8008D1B000E8E1B000E8F1B800E901B89C03D
:1052D80079F08AC07AF08BC07BF08CC07CF08DC0EE
:1052E8007DF08EC07EF08FC07FF090C080F02DECF6
:1052F8000CF079C089F07AC08AF07BC08BF07CC052
:105308008CF01200000E0101046F000E036F99EF7C
:1053180029F003510125D96E04510221DA6EDF50BC
:1053280042EC2BF00101034B042B03510125D96EEC
:1053380004510221DA6EDF50D8A4A5EF29F0A7EFB7
:1053480029F08DEF29F012009AEC2AF081EC2BF06D
:10535800010E32EC25F09CEC2BF033EC2BF0700EA8
:1053680001016C6F010E6D6FFCEC23F0B882010136
:105378006F51D8A4C2EF29F0C4EF29F0BBEF29F090
:105388000300BBEF29F09DEF00F0000E176E000E32
:10539800166EDAEF29F016501424D96E175015201E
:1053A800DA6EDF504EEC2BF0164A172A16501424EA
:1053B800D96E17501520DA6EDF50D8A4E6EF29F021
:1053C800E8EF29F0CFEF29F01200000E026E000E70
:1053D800016E00EF2AF0014A022A025009E1330E59
:1053E800015CD8A0FAEF29F0FCEF29F000EF2AF0D1
:1053F800AE500A0E08EF2AF09EAA05EF2AF007EF32
:105408002AF0EFEF29F0AE501200000E0101036FF1
:10541800000E026F19EF2AF002510025D96E0351D0
:105428000121DA6EDF6A024B032B02510025D96E87
:1054380003510121DA6EDF50D8A425EF2AF027EFB7
:105448002AF010EF2AF01200000E046E000E036E10
:1054580037EF2AF003500124D96E04500220DA6E87
:10546800DF6A034A042A03500124D96E045002203B
:10547800DA6EDF50D8A443EF2AF045EF2AF02EEF7A
:105488002AF0120001010051011102110311D8B4D0
:1054980050EF2AF052EF2AF05AEF2AF0000E001BC4
:1054A800000E011B000E021B800E031B00C100F141
:1054B80001C101F102C102F103C103F1120013504D
:1054C800141015101610D8B46CEF2AF06EEF2AF0ED
:1054D80076EF2AF0000E131A000E141A000E151A91
:1054E800800E161A13C013F014C014F015C015F06E
:1054F80016C016F012000101026F000E0101016FC3
:105508003A0E02618AEF2AF08CEF2AF096EF2AF021
:105518002F0E026592EF2AF094EF2AF096EF2AF008
:10552800010E016F01C100F100311200320ED36E7D
:10553800000E0001606F93909392939493960F01DD
:105548003991399339953997948694883A973A9945
:105558008A928A908A968A940001609160931200D8
:10556800136EC586C7A0BBEF2AF0BDEF2AF0B6EFD1
:105578002AF0C9CF14F013B002D0C59A01D0C58A59
:10558800C588C5B8CAEF2AF0CCEF2AF0C5EF2AF0D3
:1055980014501200156E000E146E3A0E1560D7EFF7
:1055A8002AF0D9EF2AF0E3EF2AF02F0E1564DFEF87
:1055B8002AF0E1EF2AF0E3EF2AF0010E146E14C08E
:1055C80013F013301200010100510203F3CF04F16C
:1055D800F4CF05F100510303F350052701510203ED
:1055E800F350052704C100F105C101F1120001EED5
:1055F8006FF0330EEE6AE806FDE100EECDF0320EF4
:10560800EE6AE806FDE14C6A4B6A4D904D92000146
:10561800A8EF29F013501502F3CF17F0F4CF18F0C4
:1056280013501602F350182614501502F35018267A
:1056380017C013F018C014F01200136E13C0C9FF7E
:10564800C7B029EF2BF02BEF2BF024EF2BF0C5BCC4
:1056580030EF2BF032EF2BF02BEF2BF01200D59E12
:10566800D59CD598D59AD596D550F80B0409D56E02
:10567800670ED76E6A0ED66EF29412000101006FA3
:10568800ACA249EF2BF04BEF2BF044EF2BF000C10D
:10569800ADFF1200136EACA254EF2BF056EF2BF0B7
:1056A8004FEF2BF013C0ADFF12008A84040E016E79
:1056B8003E0EE82EFED7012EFCD78A9412008A8669
:1056C800040E016E3E0EE82EFED7012EFCD78A96F8
:1056D80012008A80040E016E3E0EE82EFED7012EBF
:1056E800FCD78A9012008A82040E016E3E0EE82EC4
:1056F800FED7012EFCD78A921200280EC66E000E25
:10570800C56E010EC86E000EC76E1200C584C5B402
:1057180090EF2BF092EF2BF08BEF2BF01200C5805F
:10572800C5B099EF2BF09BEF2BF094EF2BF0120004
:105738009D8AF28AF28CF1949F8AD08EF28E1200A2
:10FF0000000000803F000020410000C84200007A4D
:10FF10004400401C460050C3470024744980961892
:10FF20004B20BCBE4C286B6E4EF9021550EC78ADE0
:10FF300060CAF249710000803FCDCCCC3D0AD72386
:10FF40003C6F12833A17B7D138ACC52737BD378617
:10FF50003595BFD63377CC2B325F708930FFE6DB27
:10FF60002E08E53C1E6042A20D010000000A0000C0
:10FF70000064000000E803000010270000A08601D4
:10FF80000040420F008096980000E1F50500CA9AF3
:10FF90003B41542B4349505345525645523D312C19
:10FFA000383038300D0A0041542B43495053454EE8
:10FFB000443D302C390D0A0041542B5246504F57C6
:10FFC00045523D300D0A0041542B4349504D555880
:10FFD0003D310D0A00252E31662A252E3166004955
:10FFE00050442C302C323A00434F4E4E454354007F
:0FFFF000415445300D0A00434C4F534544000027
:020000040020DA
:08000000FFFFFFFFFFFFFFFF00
:020000040030CA
:0E000000FF080924FFBF81FF0FC00FE00F4073
:0200000400F00A
:1000000056312E3030202D204C65644B3232202D5D
:0C0010002030312F31302F3230323300DD
:00000001FF
